:020000040000FA
:060000009AEF03F012006C
:0600080010EF04F01200ED
:060018000CEF04F01200E1
:02001E000000E0
:100020000001776B1E0E716E0401400E096F200EE9
:100030000A6F040E0B6F880E086F0401200E0E6FFE
:10004000040E0F6F400E0C6F1200550EA76EAA0E15
:10005000A76EA68212000401226B010E236F12000C
:100060000001756B28D90AE233D90800F5CF76F084
:1000700000011AD976C0EFFF752BF4D7F86A120089
:10008000F00E04012217840EA66E0001756B13D9C1
:100090000AE216D90F0E000175150F0801E1D5DF30
:1000A0000001752BF4D71200940EA66E0001756B3B
:1000B00002D911E27551006E016A060ED890003621
:1000C0000136E804FBE1026A01BE0268DED8BDDF4A
:1000D0000001752BEDD7F86A1200A66A0001756B56
:1000E000EAD80BE20401225100017525A96EA68011
:1000F000DBD8A8CFEFFF752BF3D712000001756B8B
:10010000DAD810E20401225100017525A96ECCD87D
:10011000EF50A86E040EA66E98DFA6B2FED70001BF
:10012000752BEED71200C40EA66E0001756BC3D8F6
:1001300005E2C6D88ADF0001752BF9D7F86A1200EC
:100140008BD8060E00017C5D03E36D50020B01E0CD
:1001500082D00001770511E104010CBF0DD004012C
:10016000400E096F400E040108170401087D880E37
:10017000040108130001776B6ED0040108BF6BD037
:100180000001756B04012051320A45E0CD0A34E0CC
:10019000F80A2DE0020A26E0010A1FE0070A18E02B
:1001A000010A11E0030A0AE0070A08E0060A01E072
:1001B00041D051DF0001040E756F3DD051DF050EB7
:1001C0000001752738D05CDF0001010E756F33D058
:1001D0006BDF0001010E756F2ED07FDF050E000171
:1001E000752729D08BDF0001010E756F24D09BDFAE
:1001F0000001010E756F1FD06D960001786B796B51
:1002000000017807000E795B00017851791101E057
:10021000F7D7FF0010D0030E0401215D03E10001B8
:10022000010E756F040E0401215D03E10001010E52
:10023000756F01D000D00001010E776F000175517C
:100240000AE075C00DF4400E04010C1704010C7D8A
:10025000880E04010C131200060E00017C5D10E1F3
:1002600000017A517B1105E1898A200E7A6F4E0ECA
:100270007B6F880E7A1904E1130E7B1901E1899ACC
:1002800000017A07000E7B5B12000401225100245A
:10029000F36E23510120F46E24510220F86EF4CF46
:1002A000F7FFF3CFF6FF12007551EA6A250FE96EEA
:1002B000040EEA221200040121510001755D1200B2
:1002C000F3DFEFCF03F004D803C0F5FF0C001200FA
:0C02D00075C000F0016A026A45EF01F001
:0402DC006C5002E080
:1002E000000E01D0010E00090BE0040100513C0B8F
:1002F000E842E8420D0802E189EF01F092EF01F0D7
:100300006C5002E0000E01D0010E040901E019D882
:1003100012000001606B616B666B676B5DEC02F055
:1003200014EF02F0020E0001605D09E15CD80401E7
:1003300000BD02D0C80E01D0880E006F12004DEF34
:1003400002F0040E00017C5D09E112C46EFF6E50E4
:10035000000802E2050E01D0030E7C6F000160056B
:1003600009E10AD8040104BD02D0C80E01D0880EEC
:10037000046F12004DEF02F00001080E665D000EE2
:10038000675903E266C069F002D0080E696F69C060
:1003900005F46951006E016A0050665F0150675BA9
:1003A000180E646F040E656F69511CE000017DA397
:1003B00007D062C0F6FF63C0F7FF0800F55005D014
:1003C00062C0E9FF63C0EAFFEF5064C0E9FF65C0A7
:1003D000EAFFEF6E0001622B000E6323642B65239E
:1003E0006907E2D7120001C46AF000016A5166256C
:1003F000666F000E6721676F180E626F040E636FE1
:100400006A5111E062C0E9FF63C0EAFFEF5064C0C7
:10041000E9FF65C0EAFFEF6E642B000E6523622BD7
:1004200063236A07EDD712000001615105E13DD851
:10043000840E006F04011DD0040110AF1CD0000118
:1004400066510401165D000167510401175904E269
:1004500016C466F017C467F08FDF0001010E606FED
:1004600024D8800E006F0401180E066F040E076F6B
:10047000C80E046F10D00001020E606F0401056BFE
:10048000C80E046F0401080E016F180E026F040EEF
:10049000036FC80E006F6D9812000001606B05D8E5
:1004A000880E006F0401046B12000401080E016F36
:0A04B000100E026F040E036F12001D
:0604BA0004011051600B6B
:1004C000E842E842E842E842E842000901E012005E
:1004D0001151080A39E0010A35E00F0A0AE0030A5F
:1004E00001E012000001010E616F0001040E7C6F3B
:1004F00012000001010E616F0401130507E1000104
:10050000CE0E626F060E636F120E13D0020E135DD5
:1005100007E10001E00E626F060E636F200E09D046
:10052000030E135D0AE10001000E626F070E636F98
:10053000040E0001666F676B02D00001616B000161
:100540007D831200B2EF02F00001010E616F000125
:100550007E0E626F000E636F00017D930001010E3D
:10056000666F12000001010E616F12C47EF004017B
:10057000125104E10001050E7C6F12000001060E0D
:060580007C6F10EF00F09B
:0A058600080E6D6E6DBAFED7686AAC
:10059000110E696E0001020E7C6F12006850040B90
:1005A00006E06950040B03E06D926994689468500A
:1005B000010B04E06950010B01E027D86850100BD3
:1005C00009E06950100B06E0698468986D82A08A82
:1005D0000300A19A6850200B09E06950200B06E047
:1005E00070A003D04DEC02F07090689A030E0001E9
:1005F0007C5D01E209D06850080B06E06950080BE9
:1006000003E06EEC01F068961200686A7B0E696E7A
:100610006E6A160E706E68A602D06896FCD76D984A
:100620004DEC02F000017E6B0001030E7C6F1200A6
:100630001E0EF66E000EF76E000EF86E0001090039
:10064000F550706F0900F550716F03E1706701D0CC
:100650003DD00900F5506B6F0900F5506C6F090033
:10066000F5506D6F09000900F550E96E0900F5506D
:10067000EA6E090009000900F5506E6F0900F55097
:100680006F6F09000900F6CF72F0F7CF73F0F8CF63
:1006900074F06BC0F6FF6CC0F7FF6DC0F8FF00018F
:1006A0006E5302E16F5307E00900F550EE6E6E07DE
:1006B000F8E26F07F9D772C0F6FF73C0F7FF74C096
:0E06C000F8FF00017007000E715BBFD712003B
:0206CE00120117
:1006D000000200000008D8040B0000000000000128
:1006E000090220000101008032090400000200001C
:1006F00000000705010240000007058102400000DC
:0407000004030904E1
:0C070400C1CF80F00F0EC11282AC04D0F7
:1007100080C0C1FF00EF04F0CF0E8916CF0E9216F5
:10072000140E6F6EC3EC02F0CEEC02F0A0EC00F001
:04073000FBD71200E1
:0C07340013EE00F023EE00F0F86A059CC4
:1007400018EC03F0AFEC03F082EC03F0FBD71200DF
:0E07500000EE00F00F0EEE6AEA62FDD7120016
:02075E00120087
:020000040030CA
:0100000024DB
:010001000EF0
:010002002AD3
:010003001EDE
:010005008179
:010006008574
:00000001FF
