:020000040000FA
:060000004FEF12F01200A8
:0600080004EF04F01200F9
:060018000CEF04F01200E1
:060800004FEF12F01200A0
:06080800CBEF10F012001E
:06081800D6EF10F0120003
:1008200089889E900401C52B070EC51713E1C62BBE
:10083000030EC6173CE1C33702E3898602D08996CE
:100840000000CF68EB0ECE6EC46B80B4C481000094
:1008500089981100C60511E7C33702E3898602D0E3
:1008600089960000CF68E90ECE6EC44780B4C4817B
:1008700000000000000089981100F60EC625C5256D
:100880000CE18982CF68EA0ECE6E00000000000005
:1008900000000000899889921100CF68EA0ECE6EA0
:1008A0000000000000000000000089981100C6054B
:1008B0001FE1E1CFCBF4E2CFCCF4D9CFCDF4DACF46
:1008C000CEF40000899814EE80F024EEC3F0C051FD
:1008D000E3CFDEFF14EEA0F0DFCFE3FFCBC4E1FFF8
:1008E000CCC4E2FFCDC4D9FFCEC4DAFF000098D754
:1008F000E80443E1C02B1F0EC017C0B739D0000079
:100900008998C0A923D0C9B103D0689C68ACFED730
:10091000689CC2B10FD0A72B0000040E2B6FA00E55
:100920002A6F100E296F400E2817880E281378D7CB
:1009300000000000000000000000000000000000B7
:10094000000000000000000000006AD7689CC2B1EF
:10095000EFD7B72BCAC4B2F40000040E2F6FB00E4D
:100960002E6F100E2D6F400E2C17880E2C1358D79B
:100970008998CF68F30ECE6E1100C0B72FD0C1B1E9
:1009800017D0C087899820BF30D0040E236F800E07
:10099000C0B9E888226F100E216F400E2017880E14
:1009A0002013C17193C4B3F400000000000038D7D5
:1009B0008998C08724BF1AD0040E276F800EC0B953
:1009C000E888266F100E256F400E2417880E24131A
:1009D000C17183C4A3F40000000022D7000000000E
:1009E0008998CF68F30ECE6E11000000C0B90AD00E
:1009F000886989698A698B698C698D698E698F6953
:100A0000B62BA0D7986999699A699B699C699D6979
:080A10009E699F69B62B97D780
:100B00000200DA2400009D00000004000000D4244C
:0A0B1000000097000000060000003E
:060B1A00D9CFE6FFE1CF98
:100B2000D9FFE6526A6A686A9F0E6B6EFB0E696EA9
:100B30006D8C6D9C6E6A010EE66EE66AE66A710E59
:100B4000E66E0F0EE66E0DEC12F0006E050EE15E25
:100B50000050DF6ADF50006E016A0C0E005C000E70
:100B6000015810E2DF50040DF3CFE9FFF4CFEAFFA4
:100B7000000EE926040EEA22EE6AEE6AEE6AEE6ADA
:100B8000DF2AE8D7160E706E68A60CD0030EE66E4C
:100B9000680EE66E0F0EE66EE4EC0CF0E552E552E0
:100BA000E552F2D70001776B7C6B7D6B7E6B6D98A5
:100BB000080E6D6F040E6E6F616B606BE552E5524F
:100BC000E7CFD9FF1200D9CFE6FFE1CFD9FFE65238
:100BD000000160510BE16D6A696A6DB602D06D86E5
:100BE000FCD70001010E606F160E6F6E600508E104
:100BF0006DBA06D0686A696A69806988020E606F9A
:100C00006850040B04E06950040B01E088D86DB211
:100C10004FD06850010B11E06950010B0EE07DDFF1
:100C20000001040E606F0401300E026F040E036FAA
:100C3000080E016F006B8C0E00136850100B04E05F
:100C40006950100B01E05CD86850400B05E069501A
:100C5000400B02E0F5EC10F06850200B04E0695006
:100C6000200B01E02AD86850020B06E06950020B05
:100C700003E0F6EC10F06A6A040E0001605D18E310
:100C800069A616D0DF6A040EDF5C12E268A610D0F7
:100C90006CCF84F0030EE66E680EE66E0F0EE66E05
:100CA000E4EC0CF0E552E552E5524CD8DF2AEBD7E4
:100CB000E552E552E7CFD9FF120070A015D063C00E
:100CC000E9FF64C0EAFFEF5080080DE16DC0E9FF65
:100CD0006EC0EAFFEF50840806E163C0E9FF64C01C
:100CE000EAFF8C0EEF6E7090050EE66E680EE66EF3
:100CF0000F0EE66EE4EC0CF0E552E552E552120000
:100D00006984040EE66E680EE66E0F0EE66EE4EC85
:100D10000CF0E552E552E5526D82F3EF10F06D9262
:100D2000F4EC10F0699468A40CD0020EE66E680E24
:100D3000E66E0F0EE66EE4EC0CF0E552E552E5527D
:100D4000F2D71200FD0E0001841520E17E0E8415FD
:100D5000E8407F0B040DF3CF63F0F4CF64F0000E96
:100D60006327040E642363C065F064C066F0657594
:100D700063C0E9FF64C0EAFFEF503C0BE842E84281
:100D80000D0802E1CCEF06F0E3EF06F0FD0E84154E
:100D9000040801E120D812006DC0E9FF6EC0EAFF2F
:100DA000EF50800B05E06DC0E9FF6EC0EAFFEF6A0F
:100DB0000001736B746B786B796B776BF3D8F7EC1E
:100DC00010F053EF09F0020E0001745D02E1ABEF89
:100DD0000AF035EF07F0D9CFE6FFE1CFD9FFE652B1
:100DE0006DC0E9FF6EC0EAFFEF50400B01E0010E5D
:100DF000DF6E00016D75080E605D09E132C46EFFA3
:100E00006E50000802E2100E01D0040E606F7405EF
:100E100026E16DC0E9FF6EC0EAFF020EE926000E72
:100E2000EA22380EEE6E040EED6E0CDB020E0001AF
:100E3000735D06E16DC0E9FF6EC0EAFF840E0DD060
:100E4000DF5006E16DC0E9FF6EC0EAFFC80E05D0B5
:100E50006DC0E9FF6EC0EAFF880EEF6E01D005D8C5
:100E6000E552E552E7CFD9FF1200D9CFE6FFE1CF37
:100E7000D9FF030EE126020E0001745D49E16D50B9
:100E8000100B46E063C0E9FF64C0EAFFEE52EF508A
:100E9000006E016A080E00183BE1015039E163C0A1
:100EA000E9FF64C0EAFFEF503C0BE842E8420D085E
:100EB0002FE165C0E9FF66C0EAFFEF50800B28E133
:100EC00065C0E9FF66C0EAFF020EE926000EEA22CD
:100ED000300EEE6E040EED6EDF6ADF50006E016ABA
:100EE000080E005C000E015844E2DF50EA6A380F39
:100EF000E96E040EEA22EF50E66EDF50EA6A300F28
:100F0000E96E040EEA22E552E750EF6EDF2AE5D7DC
:100F1000746B65C0E9FF66C0EAFFEE52080EEF6E23
:100F200065C0E9FF66C0EAFF020EE926000EEA226C
:100F3000300EEE6E040EED6E65C0E9FF66C0EAFF8E
:100F40008C0EEF6E6DC0E9FF6EC0EAFFEF6A040E13
:100F50006D19006E6EC001F0010E00C0DBFF020EC5
:100F60006EC0DBFF010EDBCFE9FF020EDBCFEAFF35
:100F7000EF6A00017CAF0CD07F51801107E005D0F3
:100F800080C0FAFF00017F51F96EFADF00017C9FFB
:100F9000030EE15C02E2E16AE552E16EE552E7CF61
:100FA000D9FF120004013051600BE842E842E842E8
:100FB000E842E842000901E0120031510C0A43E026
:100FC0000B0A3FE00C0A31E0010A22E00B0A1EE0A6
:100FD000020A1CE0030A18E0080A10E0010A0CE00B
:100FE0000F0A08E0030A01E012000001778F080EE3
:100FF000606F1200ADEF08F03BEF0BF00001610EE7
:10100000756F000E766F0CD0FEEF08F024EF08F03D
:1010100034510001756F766B620E7527000E7623D2
:101020007781010E786F778F12000001778F0401AE
:101030003451EA6A620FE96E000EEA2232C4EFFF11
:101040001200F8EF10F01200D9CFE6FFE1CFD9FF80
:10105000050EE1260401320510E130511F0B000995
:101060000CE10001778F030E0401315D04E1000102
:10107000010E836F02D00001836B0401325163E1E2
:1010800030511F0B02085FE134510F0B00095BE088
:101090000001778F040EDB6A020EF36E040EDBCFC5
:1010A000F4FFF350F45C4FE2000EDE6E040EDD6ED2
:1010B000040EDBCFE6FF04013451800B01E0010E8A
:1010C000E824026E34510F0B040DF3500224E55254
:1010D000E724040DF4CF01F0D9CFE9FFDACFEAFF1E
:1010E000F350EE260150ED22030E315D06E1DECF16
:1010F000E9FFDDCFEAFF840E22D034510F0B016AE5
:10110000700F006E0F0E0122020E00C0DBFF030EF7
:1011100001C0DBFF020EDBCFE9FF030EDBCFEAFFEE
:10112000EE90ED5234AF06D0DECFE9FFDDCFEAFF1F
:10113000400E05D0DECFE9FFDDCFEAFFC80EEF6E2F
:10114000040EDB2AA9D7050EE15C02E2E16AE55252
:10115000E16EE552E7CFD9FF1200800E0401305D49
:101160004CE10001C00E776F04013351030A29E0FE
:10117000010A09E0030A3FE100011A0E756F230E10
:10118000766F120E35D03251F66EF76AD890F63679
:10119000F736AE0EF626230EF7220900F5CF75F0CE
:1011A0000A00F5CF76F0020E0001F76A7525F66E9B
:1011B0007651F7220900F5CF78F00A00F5CF79F0E3
:1011C00012003251F66EF76AD890F636F736B00E46
:1011D000F626230EF7220900F5CF75F00A00F5CFA9
:1011E00076F075C0F6FF76C0F7FF0800F5500001F5
:1011F000786F796B12000001776B1200D9CFE6FF90
:10120000E1CFD9FF020EE1260401386B396B305172
:101210001F0B020A0EE0030A09E0010A30E1000197
:10122000778F83052CE10401388329D00001778F63
:1012300026D00001778F000EDE6E040EDD6E0401F5
:101240003451800B01E0010EE824026E34510F0B83
:10125000040DF3500224040DF4CF01F0D9CFE9FFBF
:10126000DACFEAFFF350EE260150ED22DECFE9FFA0
:10127000DDCFEAFFEF50040B02E0010E386F0001F2
:1012800077AF07D0380E756F040E766F7781020E38
:10129000786F020EE15C02E2E16AE552E16EE5522E
:1012A000E7CFD9FF12006D98000177BF47D07CAF20
:1012B00026D0020E746F6DC0E9FF6EC0EAFFEE52D9
:1012C000EF6A6DC0E9FF6EC0EAFFC80EEF6E65C041
:1012D000E9FF66C0EAFFEE52080EEF6E65C0E9FF57
:1012E00066C0EAFF020EE926000EEA22380EEE6E14
:1012F000040EED6E65C0E9FF66C0EAFF77D065C0F9
:10130000E9FF66C0EAFFEE52080EEF6E65C0E9FF26
:1013100066C0EAFF020EE926000EEA22300EEE6EEB
:10132000040EED6E65C0E9FF66C0EAFF8C0EEF6E3D
:101330006DC0E9FF6EC0EAFF840E59D07CBF81D03A
:10134000040130AF56D0000178510401365D000130
:1013500079510401375904E236C478F037C479F082
:1013600071D80001010E746F65C0E9FF66C0EAFF25
:10137000EE52080EEF6E65C0E9FF66C0EAFF020E8E
:10138000E926000EEA22300EEE6E040EED6E65C008
:10139000E9FF66C0EAFF800EEF6E63C0E9FF64C03C
:1013A000EAFFEE52080EEF6E63C0E9FF64C0EAFF89
:1013B000020EE926000EEA22300EEE6E040EED6EED
:1013C00063C0E9FF64C0EAFF800EEF6E6DC0E9FF05
:1013D0006EC0EAFF020EE926000EEA22380EEE6E1B
:1013E000040EED6E6DC0E9FF6EC0EAFFC80EEF6E31
:1013F00012000001020E746F6DC0E9FF6EC0EAFFBB
:10140000EE52EF6A6DC0E9FF6EC0EAFFC80EEF6EE4
:1014100065C0E9FF66C0EAFFEE52080EEF6E65C0D8
:10142000E9FF66C0EAFF020EE926000EEA22380E46
:10143000EE6E040EED6E65C0E9FF66C0EAFFC80EF1
:10144000EF6E1200D9CFE6FFE1CFD9FF020EE12601
:101450000001080E785D000E79590DE278C0DEFFBC
:1014600079C0DDFF735102E1010E03D0730506E17F
:10147000020E736F03D0080EDE6EDD6A6DC0E9FFE9
:101480006EC0EAFFEF926DC0E9FF6EC0EAFFEF9019
:101490006DC0E9FF6EC0EAFF010EDB50EF126DC0B8
:1014A000E9FF6EC0EAFFEE52DFCFEFFF000EDB5028
:1014B000785F010EDB50795B380E816F040E826F0E
:1014C00077B120D0D9CFE9FFDACFEAFFEE50ED10A7
:1014D00038E075C0F6FF76C0F7FF752B000E762357
:1014E0000800F550E66E81C0E9FF82C0EAFF812B5B
:1014F000000E8223E552E750EF6EDF06010EE2E2B6
:10150000DB06E0D7D9CFE9FFDACFEAFFEE50ED10E6
:1015100018E075C0E9FF76C0EAFF752B000E762350
:10152000EF50E66E81C0E9FF82C0EAFF812B000E1A
:101530008223E552E750EF6EDF06010EE3E2DB06A1
:10154000E1D7020EE15C02E2E16AE552E16EE552AA
:10155000E7CFD9FF1200D9CFE6FFE1CFD9FF020EC6
:10156000E12663C0E9FF64C0EAFFEE52EFCFDFFF80
:10157000DFCF00F0005000017D5D000E7E5903E2D8
:101580007DC0DFFF09D0DF50006E016AE8507D5D4D
:101590007D6F01507E597E6F010EDB6ADF50F36E66
:1015A000010EDBCFF4FFF350F45C16E2010EDB50CA
:1015B000EA6A380FE96E040EEA22EF50E66E7AC04E
:1015C000E9FF7BC0EAFF7A2B000E7B23E552E75050
:1015D000EF6E010EDB2AE2D7000ED8807D55000E9B
:1015E0007E5527E265C0E9FF66C0EAFFEE52080EAD
:1015F000EF6E65C0E9FF66C0EAFF020EE926000E45
:10160000EA22380EEE6E040EED6E63C0E9FF64C090
:10161000EAFFEF50400B06E165C0E9FF66C0EAFF54
:10162000C80E05D065C0E9FF66C0EAFF880EEF6E00
:1016300018D065C0E9FF66C0EAFF020EE926000E79
:10164000EA22300EEE6E040EED6E7F51801107E03F
:1016500005D080C0FAFF00017F51F96EFADF00016A
:101660007C9F020EE15C02E2E16AE552E16EE55226
:10167000E7CFD9FF12000001778F010EE66EE66A10
:10168000E66A710EE66E0F0EE66E0DEC12F0006E5D
:10169000050EE15E0050010EE66EE66AE66A620E35
:1016A000E66E000EE66E0DEC12F0006E050EE15EC9
:1016B000005032C461F00401325104E10001100E07
:1016C000606F12000001200E606FF9EF10F0D9CFAB
:1016D000E6FFE1CFD9FF020EE126000EDE6E040E1A
:1016E000DD6EFD0EDB50E824026EFE0EDB50040DB5
:1016F000F3500224040DF350006E016A020E0F0B2A
:1017000005E0D89001320032E806FBE1D8900036BF
:101710000136D89000360136D9CFE9FFDACFEAFF9B
:101720000050EE260150ED22DECFE9FFDDCFEAFFCB
:10173000EF9EFD0EDB500AE1FE0EEA6ADB34FE0B83
:10174000EA36E96E670EE926000E09D0FE0EEA6A57
:10175000DB34FE0BEA36E96E6D0EE926000EEA2256
:10176000DECFEEFFDDCFEDFFDECFE9FFDDCFEAFF1D
:10177000EF9CDECFE9FFDDCFEAFF040EE926000E85
:10178000EA22EF8C020EE15C02E2E16AE552E16ED0
:10179000E552E7CFD9FF1200D9CFE6FFE1CFD9FF5D
:1017A000020EE126FE0EDB50016A700F006E0F0E76
:1017B000012200C0DEFF01C0DDFFFD0EDB50E66E42
:1017C000DECFE9FFDDCFEAFFE552E750EE6EED6ACE
:1017D000FD0EDBA407D0E66AFE0EDBCFE6FF77DF67
:1017E000E552E552FD0EDBA208D0010EE66EFE0EBC
:1017F000DBCFE6FF6CDFE552E552020EE15C02E270
:10180000E16AE552E16EE552E7CFD9FF1200D9CF88
:10181000E6FFE1CFD9FF020EE126FE0EDB5020E10C
:1018200065C0E9FF66C0EAFFEE52080EEF6E65C0C4
:10183000E9FF66C0EAFF020EE926000EEA22300E3A
:10184000EE6E040EED6E65C0E9FF66C0EAFF8C0E19
:10185000EF6E6DC0E9FF6EC0EAFF840EEF6E3BD005
:10186000FD0EDB50E824026EFE0EDB50040DF3503B
:101870000224040DF3CF00F0F4CF01F0000E002697
:10188000040E012200C0DEFF01C0DDFF840EDECFAA
:10189000E9FFDDCFEAFFE850EF12FD0EDB50E82450
:1018A000026EFE0EDB50040DF3500224010F040DF6
:1018B000F3CF00F0F4CF01F0000E0026040E012259
:1018C00000C0DEFF01C0DDFF840EDECFE9FFDDCF0B
:1018D000EAFFE850EF12020EE15C02E2E16AE55233
:1018E000E16EE552E7CFD9FF1200D9CFE6FFE1CF95
:1018F000D9FF020EE126FD0EDB500AE0FE0EEA6A79
:10190000DB34FE0BEA36E96E6D0EE926000E09D0D7
:10191000FE0EEA6ADB34FE0BEA36E96E670EE92654
:10192000000EEA22EECFDEFFEDCFDDFFDECFE9FFD6
:10193000DDCFEAFF020EE926000EEA22FB0EDBCF26
:10194000EEFFFC0EDBCFEDFFDECFE9FFDDCFEAFFE0
:10195000EE52FA0EDBCFEFFF400EDECFE9FFDDCF18
:10196000EAFFE850EF16880EDECFE9FFDDCFEAFF91
:10197000E850EF12FD0EDB500AE0FE0EEA6ADB349F
:10198000FE0BEA36E96E6D0EE926000E09D0FE0E5A
:10199000EA6ADB34FE0BEA36E96E670EE926000ED2
:1019A000EA22EF74DECF00F0DDCF01F000C0F3FFDC
:1019B00001C0F4FF020EE15C02E2E16AE552E16E71
:1019C000E552E7CFD9FF1200D9CFE6FFE1CFD9FF2B
:1019D000010EF36EFC0EDB5004E0D890F336E806FF
:1019E000FCE1F31C006EFD0EDBCFE9FFFE0EDBCF4A
:0E19F000EAFF0050EF16E552E7CFD9FF1200D4
:0219FE00D9CF3F
:101A0000E6FFE1CFD9FF020EE126939692909484EF
:101A10009298929692849292899889928996810E50
:101A2000CD6EB16EF29ED09EF29AF296F28CF28E4C
:101A30009F809D809E903FEC12F0DE6ADD6ADECFD3
:101A400000F0DDCF01F0026AD8900250000A06E6ED
:101A5000FF0E005CFF0E0158000E025805E2DF2A5F
:101A6000010EEDE3DB2AEBD78A868990DE6ADD6A18
:101A7000DECF00F0DDCF01F0000E005C040E015857
:101A800005E2DF2A010EF4E3DB2AF2D78980E66A59
:101A9000030EE66EE66ADBEC11F0E552E552E55224
:101AA000899A929A948C8250400B01E0010E0001B9
:101AB000A16F970ED56E0401C26B0401CA6B020EB2
:101AC000E15C02E2E16AE552E16EE552E7CFD9FF5F
:101AD0001200D9CFE6FFE1CFD9FF040EE126C6D927
:101AE000200E0001605D56E36D50020B53E182B49D
:101AF00049D0130EE66E09EC10F0E552DF6EDF50B0
:101B00001AE0DFCFE6FF130EE66EF6EC0FF0E552BB
:101B1000E552DFA210D0440EE66E09EC10F0E5525B
:101B2000E76E020EE7CFDBFFDBA003D00401CA8F14
:101B300002D00401CA9F140EE66E09EC10F0E552C3
:101B4000E76E010EE7CFDBFFDB501CE0010EDBCFC1
:101B5000E6FF140EE66EF6EC0FF0E552E552010ECC
:101B6000DBA010D0180EE66E09EC10F0E552E76E1F
:101B7000030EE7CFDBFFE00E0401CA17030EDB50B4
:101B80001F0BCA1311D8F2A405D0F294480ED76ED9
:101B9000E50ED66E040EE15C02E2E16AE552E16E0A
:101BA000E552E7CFD9FF1200D9CFE6FFE1CFD9FF49
:101BB000030EE12600019751981102E1000E08D0B2
:101BC00097C0E9FF98C0EAFFEF50800B01E0010EDB
:101BD000000901E041D10001A26B60C440F461C47E
:101BE00041F404016051FF0A01E1F8D0810A01E1EA
:101BF000A6D03C0A01E19BD0030A01E192D0010A80
:101C000001E187D0C40A5AE0010A39E0070A24E05A
:101C1000010A12E0030A0EE0010A0CE0810A01E069
:101C2000DFD00401426B0401010E436F0001040E7A
:101C3000A26FD8D00000D6D061C4E6FF77EC0FF0D9
:101C4000E552000901E1CED062C4E6FF61C4E6FFBF
:101C5000F6EC0FF0E552E55261C4E6FF77EC0FF0C9
:101C6000E552000901E1BED061C4E6FF09EC10F0C5
:101C7000E5520401426F0001030EA26FB3D063C4AA
:101C800002F002C003F0026A040162510001021076
:101C9000006E03C001F0010E00C0DBFF020E01C0A8
:101CA000DBFF010EDBCFE6FF020EDBCFE6FF61C4F8
:101CB000E6FF94EC10F0E552E552E55261C4E6FF10
:101CC00047EC10F0E552DE52F3CFDEFFF4CFDDFF3C
:101CD000DD52FF0EE76E010EDBCF00F0020EDBCF10
:101CE00001F0E7500016016A00C042F4010EDBCF9C
:101CF00000F0020EDBCF01F0000E0016FF0E011601
:101D000001C000F0016A00C043F40001040EA26F9C
:101D100069D0C6C442F4C5C443F40001040EA26FE6
:101D200061D0C7C442F40001030EA26F5BD0C7C4E8
:101D300042F4C8C443F40001040EA26F53D004015E
:101D4000615103E00401C26948D00401BA0EA06FDA
:101D50000401BA0EB06F0401EE0EA16F0401DD0E96
:101D6000B16F0401A26B0401B26B0401A36B040107
:101D7000B36B0401A46B0401B46B0401A56B0401F3
:101D8000B56B0401A66B0401B66B0401A76B0401DB
:101D9000B76B040188690401896904018A69040137
:101DA0008B6904018C6904018D6904018E69040149
:101DB0008F69040198690401996904019A69040111
:101DC0009B6904019C6904019D6904019E690401E9
:101DD0009F690401C26B0401C76B04D0FF0002D0ED
:101DE000000000D00001A25124E0000199519A1195
:101DF00002E1000E08D099C0E9FF9AC0EAFFEF5057
:101E0000800B01E0010E000914E1A2C0E6FF400EC4
:101E1000E66E040EE66E010EE66E010EE66E75ECE1
:101E20000CF0006E050EE15E0050F3CF99F0F4CF98
:101E30009AF0200EE66E600EE66E040EE66EE66A1E
:101E4000010EE66E75EC0CF0006E050EE15E0050C2
:101E5000F3CF97F0F4CF98F0030EE15C02E2E16A71
:101E6000E552E16EE552E7CFD9FF120000019B5128
:101E70009C1104E1100E9B6F270E9C6F9B07000EB8
:101E80009C5B6DA204D09B519C1121E116D00001F6
:101E900060510AE0600503E0020E605D02E1898A9C
:101EA0001200040E605D02E1899A1200100E605D5E
:101EB00006E100019B519C110AE1897A1200200E73
:101EC000605D05E100019B519C1101E1897A1200DE
:101ED0008250400B01E0010E0001A15D07E082503D
:0E1EE000400B01E0010EA16F82AC010C000C62
:021EEE00D9CF4A
:101EF000E6FFE1CFD9FFFE0EDB50070A32E00B0A06
:101F000030E0010A2EE01D0A2CE0010A2AE0080A4E
:101F100028E0030A26E0010A24E0070A22E0010A79
:101F200020E0030A1EE0010A1CE02A0A1AE0030A64
:101F300018E0010A16E00F0A14E0010A12E0030A91
:101F400010E0010A0EE0070A0CE0010A0AE0030AA9
:101F500008E0640A06E0010A04E0FE0EDB506C08AB
:101F600002E2000E01D0010EE552E7CFD9FF1200C8
:101F7000D9CFE6FFE1CFD9FF020EE1260A0EDE6ED1
:101F8000DD6ADFCF00F0DF06010EDBCF01F001E2FA
:101F9000DB0600500110F5E1020EE15C02E2E16AAD
:101FA000E552E16EE552E7CFD9FF1200D9CFE6FF47
:101FB000E1CFD9FF8A96FE0EDBCFE6FF27EC12F0C9
:101FC000E5528A86E552E7CFD9FF1200D9CFE6FF66
:101FD000E1CFD9FFE6528A9664EC12F0DF6E8A8672
:101FE000DF50E552E552E7CFD9FF1200D9CFE6FF27
:101FF000E1CFD9FFFE0EDBCFE6FFD8DFE552B8DF39
:10200000FD0EDBCFE6FFD2DFE552E552E7CFD9FF89
:102010001200D9CFE6FFE1CFD9FFFE0EDB508009D9
:10202000E66EC4DFE552A4DFD1DFE552E7CFD9FF8A
:102030001200D9CFE6FFE1CFD9FF020EE126DE6A1A
:10204000DD6ADECF00F0DDCF01F0D890015004E66C
:10205000E80E005C030E01580DE21F0EE66ED9DF9C
:10206000E552000902E1F36A07D0DF2A010EE9E335
:10207000DB2AE7D7010EF36EF46A020EE15C02E29E
:10208000E16AE552E16EE552E7CFD9FF1200D9CF00
:10209000E6FFE1CFD9FF020EE126DE6ADD6AC9DF85
:1020A000F3CF00F0F4CF01F0F350F41004E0AD0EE4
:1020B000F36EDE0E13D0FE0EDBCFE6FF1E0EE66ED5
:1020C00095DFE552E552B5DFF3CF00F0F4CF01F034
:1020D000F350F41005E0EF0EF36EBE0EF46E1AD05E
:1020E0001D0EE66E96DFE552DE6EDD6AD9CFE9FFA2
:1020F000DACFEAFFEE50ED6EEF6A1C0EE66E89DF76
:10210000E552DF12DECF00F0DDCF01F000C0F3FFBB
:1021100001C0F4FF020EE15C02E2E16AE552E16E09
:10212000E552E7CFD9FF1200D9CFE6FFE1CFD9FFC3
:1021300080DFF350F4102BE1FF0EE76EFC0EDBCFD7
:1021400000F0E7500016016A0050E66E1C0EE66EC5
:102150004DDFE552E552FC0EDBCF00F0FD0EDBCF8C
:1021600001F0000E0016FF0E011601C000F0016A1A
:102170000050E66E1D0EE66E39DFE552E552FE0EAA
:10218000DBCFE6FF1E0EE66E31DFE552E552E5528B
:06219000E7CFD9FF1200A9
:0A219600DACFE4FFE2CFDAFFE652F1
:1021A00010EF04F0E552E5CFDAFF1100D8CFE4FFDD
:1021B000E0CFE4FFE46EDACFE4FFE652E552E5CF8C
:1021C000DAFFE550E5CFE0FFE5CFD8FF100005D8F6
:1021D000E3EC05F069EC0DF0FBD70F0EC1128DECAE
:1021E00005F0FFEF0CF012001200120012001200B6
:1021F00012001E0EE66E010EE66ECCEC0BF0E55200
:10220000E552200EE66E600EE66E040EE66EE66A9D
:10221000010EE66E75EC0CF0006E050EE15E0050EE
:10222000F3CF97F0F4CF98F00E0EE66E020EE66E46
:10223000CCEC0BF0E552E552100EE66E800EE66E29
:10224000040EE66EE66A020EE66E75EC0CF0006EA9
:10225000050EE15E0050F3CF9DF0F4CF9EF012002A
:102260006D840001080EA36F070EA46FA307000E74
:0C227000A45BA351A411FAE16D941200CC
:04227C00000EF66EEC
:102280000B0EF76E000EF86E00010900F550926F0C
:102290000900F550936F03E1926701D03DD009002A
:1022A000F5508D6F0900F5508E6F0900F5508F6F56
:1022B00009000900F550E96E0900F550EA6E0900C1
:1022C00009000900F550906F0900F550916F090061
:1022D0000900F6CF94F0F7CF95F0F8CF96F08DC0C7
:1022E000F6FF8EC0F7FF8FC0F8FF0001905302E1A8
:1022F000915307E00900F550EE6E9007F8E2910760
:10230000F9D794C0F6FF95C0F7FF96C0F8FF00011B
:0A2310009207000E935BBFD7120086
:06231A00120100020000A8
:102320000008D804F1FC01000102000109022E009E
:1023300001010080FA090400000400000000070504
:102340000102200001070581022000010705020D9E
:102350001000010705820D100001040309042A037F
:1023600041006E00670065006C006F007300200084
:102370005600610072007600690074007300690005
:102380006F0074006900730026034F007000650041
:102390006E00200055005300420020004600580007
:1023A0005300200062006F006100720064002C2363
:0623B0005A235E2388237E
:0A23B600D9CFE6FFDACFE6FFE1CF52
:1023C000D9FFE2CFDAFF3F0EC716C66AFD0EDB501B
:1023D000C612FB0EDB50C712FC0EDB50030A09E0ED
:1023E000010A04E0020A06E1C78C04D0C78CC68843
:1023F00001D0C688FD0EDB50050A03E0010A03E1A7
:10240000928A938201D093929380949EC68AE552D9
:0A241000E5CFDAFFE7CFD9FF120095
:06241A00FE0EE3CFE9FF16
:10242000FF0EE3CFEAFFE9CFF3FFEACFF4FFFB0EA5
:10243000E35003E1FC0EE35009E0FB0EE30602E289
:0E244000FC0EE306FD0EE350EE6EF1D7120027
:02244E00D9CFE4
:10245000E6FFDACFE6FFE1CFD9FFE2CFDAFFFD0EEC
:10246000DB50C96EC6AE02D0FF0E03D0C7A0FED7A8
:0E247000000EE552E5CFDAFFE7CFD9FF1200EC
:02247E009D902F
:102480000401070EC56F030EC66F080EC06FC16B47
:0E249000C76BC26BC969899889929D80120042
:02249E0013EE3B
:1024A00000F023EE00F0F86A059C3EEC11F069ECB8
:0A24B00012F0E7EC10F0FBD7120069
:0624BA0000EE00F00F0E21
:0824C000EE6AEA62FDD712008A
:0824C800C96AC7A0FED7C95084
:0224D0001200F8
:0224D2001200F6
:0624D40000000000000002
:0424DA0000000000FE
:020000040030CA
:0100000024DB
:010001000EF0
:010002002BD2
:010003001EDE
:010005008179
:010006008574
:010008000FE8
:01000900C036
:01000A000FE6
:01000B00E014
:01000C000FE4
:01000D0040B2
:00000001FF
