:020000040000FA
:060000009AEF15F012005A
:0600080004EF04F01200F9
:060018000CEF04F01200E1
:0608000068EF12F0120087
:06080800A1EF13F0120045
:06081800ACEF13F012002A
:1008200089889E900401C52B070EC51713E1C62BBE
:10083000030EC61750E18992C33702E3898602D0BE
:1008400089960000CF68EC0ECE6EC46B80B4C48174
:1008500089981100C60511E7C33702E3898602D0E3
:1008600089960000CF68E90ECE6EC44780B4C4817B
:1008700000000000000089981100F60EC625C5256D
:1008800020E1C029E8B616D0CAB109D068BCCA694F
:10089000898200008998CF68F30ECE6E11000000A7
:1008A00089820000899868ACFED7689CCF68FC0EEE
:1008B000CE6E1100CF68ED0ECE6E89820000899851
:1008C0001100CF68EA0ECE6E0000000000000000AC
:1008D000000089981100C6051FE1E1CFCBF4E2CFFB
:1008E000CCF4D9CFCDF4DACFCEF40000899814EE51
:1008F00080F024EEC3F0C051E3CFDEFF14EEA0F091
:10090000DFCFE3FFCBC4E1FFCCC4E2FFCDC4D9FF0E
:10091000CEC4DAFF000084D7E80440E1C02B1F0EEC
:10092000C017C0B736D000008998C0A920D00000F9
:1009300000D00000C2B10FD0A72B0000040E2B6F17
:10094000A00E2A6F100E296F400E2817880E28134C
:1009500067D7000000000000000000000000000059
:1009600000000000000000000000000059D7000057
:10097000C2B1EFD7B72BC9C4B2F40000040E2F6F79
:10098000B00E2E6F100E2D6F400E2C17880E2C13EC
:1009900047D78998CF68F30ECE6E1100C0B72FD01D
:1009A000C1B117D0C087899820BF30D0040E236F03
:1009B000800EC0B9E888226F100E216F400E2017FC
:1009C000880E2013C17193C4B3F40000000000002E
:1009D00027D78998C08724BF1AD0040E276F800EAE
:1009E000C0B9E888266F100E256F400E2417880EB8
:1009F0002413C17183C4A3F40000000011D70000C8
:100A000000008998CF68F30ECE6E11000000C0B9C7
:100A10000AD0886989698A698B698C698D698E6950
:100A20008F69B62BA0D7986999699A699B699C6967
:0A0A30009D699E699F69B62B97D758
:100B00000300902B0000B5000000040000007E2BC5
:100B100000008D00000012000000762B0000A900EC
:060B2000000008000000C7
:0A0B2600D9CFE6FFE1CFD9FFE65278
:100B30006A6A686A9F0E6B6EFB0E696E6D8C6D9CA7
:100B40006E6A010EE66EE66AE66A710EE66E0F0EDA
:100B5000E66E57EC15F0006E050EE15E0050DF6AA0
:100B6000DF50006E016A0C0E005C000E015810E2AE
:100B7000DF50040DF3CFE9FFF4CFEAFF000EE926C2
:100B8000040EEA22EE6AEE6AEE6AEE6ADF2AE8D71F
:100B9000160E706E68A60CD0030EE66E680EE66E3A
:100BA0000F0EE66E2BEC0DF0E552E552E552F2D752
:100BB0000001776B7C6B7D6B7E6B6D98080E6D6FA3
:100BC000040E6E6F616B606BE552E552E7CFD9FFA3
:100BD0001200D9CFE6FFE1CFD9FFE6520001605104
:100BE0000BE16D6A696A6DB602D06D86FCD70001B3
:100BF000010E606F160E6F6E600508E16DBA06D0CB
:100C0000686A696A69806988020E606F6850040BBF
:100C100004E06950040B01E088D86DB24FD06850F1
:100C2000010B11E06950010B0EE07DDF0001040EA5
:100C3000606F0401300E026F040E036F080E016F27
:100C4000006B8C0E00136850100B04E06950100B01
:100C500001E05CD86850400B05E06950400B02E0B1
:100C600005EC14F06850200B04E06950200B01E003
:100C70002AD86850020B06E06950020B03E006EC2C
:100C800014F06A6A040E0001605D18E369A616D0CC
:100C9000DF6A040EDF5C12E268A610D06CCF84F02D
:100CA000030EE66E680EE66E0F0EE66E2BEC0DF090
:100CB000E552E552E5524CD8DF2AEBD7E552E55232
:100CC000E7CFD9FF120070A015D063C0E9FF64C060
:100CD000EAFFEF5080080DE16DC0E9FF6EC0EAFF4A
:100CE000EF50840806E163C0E9FF64C0EAFF8C0EA0
:100CF000EF6E7090050EE66E680EE66E0F0EE66EF5
:100D00002BEC0DF0E552E552E55212006984040E19
:100D1000E66E680EE66E0F0EE66E2BEC0DF0E552F9
:100D2000E552E5526D82C9EF13F06D92E3EC13F0DA
:100D3000699468A40CD0020EE66E680EE66E0F0E83
:100D4000E66E2BEC0DF0E552E552E552F2D71200BB
:100D5000FD0E0001841520E17E0E8415E8407F0B16
:100D6000040DF3CF63F0F4CF64F0000E6327040E9C
:100D7000642363C065F064C066F0657563C0E9FF15
:100D800064C0EAFFEF503C0BE842E8420D0802E184
:100D9000D2EF06F0E9EF06F0FD0E8415040801E13C
:100DA00020D812006DC0E9FF6EC0EAFFEF50800B43
:100DB00005E06DC0E9FF6EC0EAFFEF6A0001736BEA
:100DC000746B786B796B776BF3D820EC14F09AEF37
:100DD00009F0020E0001745D02E1F2EF0AF03BEF50
:100DE00007F0D9CFE6FFE1CFD9FFE6526DC0E9FFAA
:100DF0006EC0EAFFEF50400B01E0010EDF6E000114
:100E00006D75080E605D09E132C46EFF6E5000081A
:100E100002E2100E01D0040E606F740526E16DC071
:100E2000E9FF6EC0EAFF020EE926000EEA22380E44
:100E3000EE6E040EED6E4DDB020E0001735D06E1F9
:100E40006DC0E9FF6EC0EAFF840E0DD0DF5006E1F1
:100E50006DC0E9FF6EC0EAFFC80E05D06DC0E9FFA6
:100E60006EC0EAFF880EEF6E01D005D8E552E5525C
:100E7000E7CFD9FF1200D9CFE6FFE1CFD9FF030EAC
:100E8000E126020E0001745D49E16D50100B46E051
:100E900063C0E9FF64C0EAFFEE52EF50006E016AE2
:100EA000080E00183BE1015039E163C0E9FF64C05E
:100EB000EAFFEF503C0BE842E8420D082FE165C025
:100EC000E9FF66C0EAFFEF50800B28E165C0E9FF4B
:100ED00066C0EAFF020EE926000EEA22300EEE6E30
:100EE000040EED6EDF6ADF50006E016A080E005CD2
:100EF000000E015844E2DF50EA6A380FE96E040E32
:100F0000EA22EF50E66EDF50EA6A300FE96E040E17
:100F1000EA22E552E750EF6EDF2AE5D7746B65C031
:100F2000E9FF66C0EAFFEE52080EEF6E65C0E9FF0A
:100F300066C0EAFF020EE926000EEA22300EEE6ECF
:100F4000040EED6E65C0E9FF66C0EAFF8C0EEF6E21
:100F50006DC0E9FF6EC0EAFFEF6A040E6D19006E06
:100F60006EC001F0010E00C0DBFF020E6EC0DBFFA1
:100F7000010EDBCFE9FF020EDBCFEAFFEF6A0001D3
:100F80007CAF0CD07F51801107E005D080C0FAFF04
:100F900000017F51F96EFADF00017C9F030EE15CD6
:100FA00002E2E16AE552E16EE552E7CFD9FF1200B5
:100FB00004013051600BE842E842E842E842E8426E
:100FC000000901E0120031510C0A43E00B0A3FE036
:100FD0000C0A31E0010A22E00B0A1EE0020A1CE0C2
:100FE000030A18E0080A10E0010A0CE00F0A08E002
:100FF000030A01E012000001778F080E606F1200F3
:10100000B3EF08F082EF0BF00001610E756F000E78
:10101000766F0CD045EF09F02AEF08F0345100014B
:10102000756F766B620E7527000E76237781010E41
:10103000786F778F12000001778F04013451EA6ACC
:10104000620FE96E000EEA2232C4EFFF120021EFB8
:1010500014F01200D9CFE6FFE1CFD9FF050EE1264B
:101060000401320510E130511F0B00090CE10001B1
:10107000778F030E0401315D04E10001010E836FDF
:1010800002D00001836B0401325163E130511F0B28
:1010900002085FE134510F0B00095BE00001778F1C
:1010A000040EDB6A020EF36E040EDBCFF4FFF35086
:1010B000F45C4FE2000EDE6E040EDD6E040EDBCF3C
:1010C000E6FF04013451800B01E0010EE824026EBA
:1010D00034510F0B040DF3500224E552E724040DA4
:1010E000F4CF01F0D9CFE9FFDACFEAFFF350EE26D3
:1010F0000150ED22030E315D06E1DECFE9FFDDCFC9
:10110000EAFF840E22D034510F0B016A700F006E7B
:101110000F0E0122020E00C0DBFF030E01C0DBFF39
:10112000020EDBCFE9FF030EDBCFEAFFEE90ED52BC
:1011300034AF06D0DECFE9FFDDCFEAFF400E05D0A9
:10114000DECFE9FFDDCFEAFFC80EEF6E040EDB2A2B
:10115000A9D7050EE15C02E2E16AE552E16EE552D3
:10116000E7CFD9FF1200800E0401305D01E08CD082
:101170000001C00E776F04013351030A2AE0010A0F
:101180000AE0030A01E07ED00001AC0E756F290E63
:10119000766F120E74D03251F66EF76AD890F6362A
:1011A000F736400EF6262A0EF7220900F5CF75F025
:1011B0000A00F5CF76F0020E0001F76A7525F66E8B
:1011C0007651F7220900F5CF78F00A00F5CF79F0D3
:1011D0001200030E325D3CE1040EE66E3251F66EF3
:1011E000F76AD890F636F736420EF6262A0EF72220
:1011F0000900F5CF00F00800F5CF01F0020E00263F
:10120000000E012200C0E6FF01C0E6FFE66A04EC22
:1012100013F0E552E552E552E55204013251F66E03
:10122000F76AD890F636F736420EF6262A0EF722DF
:101230000900F5CF75F00A00F5CF76F075C0E9FF2B
:1012400076C0EAFFEF500001786F796B778112006A
:101250003251F66EF76AD890F636F736420EF62619
:101260002A0EF7220900F5CF75F00A00F5CF76F0C7
:1012700075C0F6FF76C0F7FF0800F5500001786FE3
:10128000796B12000001776B1200D9CFE6FFE1CF36
:10129000D9FF020EE1260401386B396B30511F0B68
:1012A000020A0EE0030A09E0010A30E10001778F2B
:1012B00083052CE10401388329D00001778F26D0E3
:1012C0000001778F000EDE6E040EDD6E04013451D6
:1012D000800B01E0010EE824026E34510F0B040D67
:1012E000F3500224040DF4CF01F0D9CFE9FFDACF97
:1012F000EAFFF350EE260150ED22DECFE9FFDDCF0D
:10130000EAFFEF50040B02E0010E386F000177AFE7
:1013100007D0380E756F040E766F7781020E786FE6
:10132000020EE15C02E2E16AE552E16EE552E7CFCE
:10133000D9FF12006D98000177BF47D07CAF26D04F
:10134000020E746F6DC0E9FF6EC0EAFFEE52EF6AE5
:101350006DC0E9FF6EC0EAFFC80EEF6E65C0E9FF21
:1013600066C0EAFFEE52080EEF6E65C0E9FF66C088
:10137000EAFF020EE926000EEA22380EEE6E040E97
:10138000ED6E65C0E9FF66C0EAFF77D065C0E9FF92
:1013900066C0EAFFEE52080EEF6E65C0E9FF66C058
:1013A000EAFF020EE926000EEA22300EEE6E040E6F
:1013B000ED6E65C0E9FF66C0EAFF8C0EEF6E6DC092
:1013C000E9FF6EC0EAFF840E59D07CBF81D00401D2
:1013D00030AF56D0000178510401365D00017951DB
:1013E0000401375904E236C478F037C479F071D873
:1013F0000001010E746F65C0E9FF66C0EAFFEE529E
:10140000080EEF6E65C0E9FF66C0EAFF020EE9262E
:10141000000EEA22300EEE6E040EED6E65C0E9FF9E
:1014200066C0EAFF800EEF6E63C0E9FF64C0EAFFAA
:10143000EE52080EEF6E63C0E9FF64C0EAFF020ED1
:10144000E926000EEA22300EEE6E040EED6E63C049
:10145000E9FF64C0EAFF800EEF6E6DC0E9FF6EC069
:10146000EAFF020EE926000EEA22380EEE6E040EA6
:10147000ED6E6DC0E9FF6EC0EAFFC80EEF6E1200A0
:101480000001020E746F6DC0E9FF6EC0EAFFEE52FC
:10149000EF6A6DC0E9FF6EC0EAFFC80EEF6E65C06F
:1014A000E9FF66C0EAFFEE52080EEF6E65C0E9FF85
:1014B00066C0EAFF020EE926000EEA22380EEE6E42
:1014C000040EED6E65C0E9FF66C0EAFFC80EEF6E60
:1014D0001200D9CFE6FFE1CFD9FF020EE1260001CD
:1014E000080E785D000E79590DE278C0DEFF79C0F4
:1014F000DDFF735102E1010E03D0730506E1020E18
:10150000736F03D0080EDE6EDD6A6DC0E9FF6EC03A
:10151000EAFFEF926DC0E9FF6EC0EAFFEF906DC089
:10152000E9FF6EC0EAFF010EDB50EF126DC0E9FF6C
:101530006EC0EAFFEE52DFCFEFFF000EDB50785FA8
:10154000010EDB50795B380E816F040E826F77B12C
:1015500020D0D9CFE9FFDACFEAFFEE50ED1038E026
:1015600075C0F6FF76C0F7FF752B000E76230800D6
:10157000F550E66E81C0E9FF82C0EAFF812B000EC4
:101580008223E552E750EF6EDF06010EE2E2DB0652
:10159000E0D7D9CFE9FFDACFEAFFEE50ED1018E03F
:1015A00075C0E9FF76C0EAFF752B000E7623EF5079
:1015B000E66E81C0E9FF82C0EAFF812B000E822324
:1015C000E552E750EF6EDF06010EE3E2DB06E1D7FE
:1015D000020EE15C02E2E16AE552E16EE552E7CF1C
:1015E000D9FF1200D9CFE6FFE1CFD9FF020EE126E5
:1015F00063C0E9FF64C0EAFFEE52EFCFDFFFDFCF49
:1016000000F0005000017D5D000E7E5903E27DC0B8
:10161000DFFF09D0DF50006E016AE8507D5D7D6F0D
:1016200001507E597E6F010EDB6ADF50F36E010EB2
:10163000DBCFF4FFF350F45C16E2010EDB50EA6AF4
:10164000380FE96E040EEA22EF50E66E7AC0E9FF29
:101650007BC0EAFF7A2B000E7B23E552E750EF6E4A
:10166000010EDB2AE2D7000ED8807D55000E7E5594
:1016700027E265C0E9FF66C0EAFFEE52080EEF6E92
:1016800065C0E9FF66C0EAFF020EE926000EEA2205
:10169000380EEE6E040EED6E63C0E9FF64C0EAFF23
:1016A000EF50400B06E165C0E9FF66C0EAFFC80ED7
:1016B00005D065C0E9FF66C0EAFF880EEF6E18D05E
:1016C00065C0E9FF66C0EAFF020EE926000EEA22C5
:1016D000300EEE6E040EED6E7F51801107E005D0E6
:1016E00080C0FAFF00017F51F96EFADF00017C9F94
:1016F000020EE15C02E2E16AE552E16EE552E7CFFB
:10170000D9FF12000001778F010EE66EE66AE66AE5
:10171000710EE66E0F0EE66E57EC15F0006E050EBC
:10172000E15E0050010EE66EE66AE66A620EE66E63
:10173000000EE66E57EC15F0006E050EE15E0050EF
:1017400032C461F00401325104E10001100E606FF7
:1017500012000001200E606F22EF14F0D9CFE6FFD7
:10176000E1CFD9FF020EE126000EDE6E040EDD6E23
:10177000FD0EDB50E824026EFE0EDB50040DF3502C
:101780000224040DF350006E016A020E0F0B05E0F7
:10179000D89001320032E806FBE1D89000360136DD
:1017A000D89000360136D9CFE9FFDACFEAFF0050F2
:1017B000EE260150ED22DECFE9FFDDCFEAFFEF9EFE
:1017C000FD0EDB500AE1FE0EEA6ADB34FE0BEA3660
:1017D000E96E670EE926000E09D0FE0EEA6ADB34D8
:1017E000FE0BEA36E96E6D0EE926000EEA22DECF28
:1017F000EEFFDDCFEDFFDECFE9FFDDCFEAFFEF9CAF
:10180000DECFE9FFDDCFEAFF040EE926000EEA2273
:10181000EF8C020EE15C02E2E16AE552E16EE55214
:10182000E7CFD9FF1200D9CFE6FFE1CFD9FF020EF3
:10183000E126FE0EDB50016A700F006E0F0E0122D2
:1018400000C0DEFF01C0DDFFFD0EDB50E66EDECF27
:10185000E9FFDDCFEAFFE552E750EE6EED6AFD0EDF
:10186000DBA407D0E66AFE0EDBCFE6FF77DFE552AA
:10187000E552FD0EDBA208D0010EE66EFE0EDBCFB8
:10188000E6FF6CDFE552E552020EE15C02E2E16A3E
:10189000E552E16EE552E7CFD9FF1200D9CFE6FF5E
:1018A000E1CFD9FF020EE126FE0EDB5020E165C03C
:1018B000E9FF66C0EAFFEE52080EEF6E65C0E9FF71
:1018C00066C0EAFF020EE926000EEA22300EEE6E36
:1018D000040EED6E65C0E9FF66C0EAFF8C0EEF6E88
:1018E0006DC0E9FF6EC0EAFF840EEF6E3BD0FD0EC7
:1018F000DB50E824026EFE0EDB50040DF350022490
:10190000040DF3CF00F0F4CF01F0000E0026040E1A
:10191000012200C0DEFF01C0DDFF840EDECFE9FF43
:10192000DDCFEAFFE850EF12FD0EDB50E824026E37
:10193000FE0EDB50040DF3500224010F040DF3CF13
:1019400000F0F4CF01F0000E0026040E012200C0CA
:10195000DEFF01C0DDFF840EDECFE9FFDDCFEAFF51
:10196000E850EF12020EE15C02E2E16AE552E16E3C
:10197000E552E7CFD9FF1200D9CFE6FFE1CFD9FF7B
:10198000020EE126FD0EDB500AE0FE0EEA6ADB34B1
:10199000FE0BEA36E96E6D0EE926000E09D0FE0E4A
:1019A000EA6ADB34FE0BEA36E96E670EE926000EC2
:1019B000EA22EECFDEFFEDCFDDFFDECFE9FFDDCFA8
:1019C000EAFF020EE926000EEA22FB0EDBCFEEFF55
:1019D000FC0EDBCFEDFFDECFE9FFDDCFEAFFEE52FD
:1019E000FA0EDBCFEFFF400EDECFE9FFDDCFEAFFDF
:1019F000E850EF16880EDECFE9FFDDCFEAFFE850B2
:101A0000EF12FD0EDB500AE0FE0EEA6ADB34FE0B3D
:101A1000EA36E96E6D0EE926000E09D0FE0EEA6A7E
:101A2000DB34FE0BEA36E96E670EE926000EEA2289
:101A3000EF74DECF00F0DDCF01F000C0F3FF01C096
:101A4000F4FF020EE15C02E2E16AE552E16EE5526A
:101A5000E7CFD9FF1200D9CFE6FFE1CFD9FF010EC2
:101A6000F36EFC0EDB5004E0D890F336E806FCE1A0
:101A7000F31C006EFD0EDBCFE9FFFE0EDBCFEAFFAD
:0C1A80000050EF16E552E7CFD9FF12002E
:041A8C00D9CFE6FFC9
:101A9000E1CFD9FF040EE126D950020FE96EDACF6B
:101AA000EAFFA40EEE6E040EED6E020EDBCFE9FF30
:101AB000030EDBCFEAFFEF6A93969290948492989C
:101AC000929692849292899889928996810ECD6E8F
:101AD000B16EF29ED09EF29AF296F28CF28E9F80B8
:101AE0009D809E9089EC15F0DE6ADD6ADECF00F005
:101AF000DDCF01F0026AD8900250000A06E6FF0E20
:101B0000005CFF0E0158000E025805E2DF2A010EAC
:101B1000EDE3DB2AEBD78A868990DE6ADD6ADECFC9
:101B200000F0DDCF01F0000E005C100E015805E260
:101B3000DF2A010EF4E3DB2AF2D78980E66A030E7E
:101B4000E66E010EE66E25EC15F0E552E552E55223
:101B5000899A929A948C8250400B01E0010E000108
:101B6000B16F970ED56E0401C26B0001B36BB46BFD
:101B70000401C96B040EE15C02E2E16AE552E16E28
:101B8000E552E7CFD9FF1200D9CFE6FFE1CFD9FF69
:101B9000070EE12608DB200E0001605D01E29DD00A
:101BA0006D50020B01E099D082B44CD0130EE66E5A
:101BB000A6EC11F0E552DF6EDF501CE0DFCFE6FF50
:101BC000130EE66E93EC11F0E552E552030EDF14AE
:101BD00011E0440EE66EA6EC11F0E552E76E020E3F
:101BE000E7CFDBFFDB50030B03E00401C98F02D01A
:101BF0000401C99F140EE66EA6EC11F0E552E76EE3
:101C0000010EE7CFDBFFDB502EE0010EDBCFE6FF5E
:101C1000140EE66E93EC11F0E552E552010EDBA0D6
:101C200022D0180EE66EA6EC11F0E552E76E030E18
:101C3000E7CFDBFFE00E0401C917030EDB501F0BDB
:101C4000C91311D00401C9A90ED0180EE66EA6EC76
:101C500011F0E552E76E030EE7CFDBFFDBB803D0F0
:101C6000E00E0401C9170001B3512FE0B451040183
:101C7000845D2BE0040E84C4DBFF050E85C4DBFF0E
:101C8000060E86C4DBFF040EDB500401945D1DE1EB
:101C9000050EDB50955D19E1060EDB50965D15E1F2
:101CA000040EDBCFB4F0050EDBCFE6FF14EC11F031
:101CB000E55200090AE0060EDBCFE6FF050EDBCF9A
:101CC000E6FF93EC11F0E552E55211D8F2A405D0ED
:101CD000F294480ED76EE50ED66E070EE15C02E276
:101CE000E16AE552E16EE552E7CFD9FF1200D9CFA4
:101CF000E6FFE1CFD9FF090EE1260001AB51AC119F
:101D000002E1000E08D0ABC0E9FFACC0EAFFEF5023
:101D1000800B01E0010E000901E03BD20001B26B33
:101D200060C440F461C441F404016051FF0A01E160
:101D3000F2D1800A01E161D1010A01E10FD1030A68
:101D400001E107D11F0A01E1F5D0030A01E1D4D076
:101D5000010A01E1C4D0220A01E1B9D0030A01E17C
:101D6000B0D0010A01E1A5D0CF0A01E187D00B0A6A
:101D70005AE0010A39E0070A24E0010A12E0030AE6
:101D80000EE0010A0CE0810A01E0C7D10401426BB8
:101D90000401010E436F0001040EB26FC0D10000B8
:101DA000BED161C4E6FF14EC11F0E552000901E177
:101DB000B6D162C4E6FF61C4E6FF93EC11F0E552D0
:101DC000E55261C4E6FF14EC11F0E552000901E1AF
:101DD000A6D161C4E6FFA6EC11F0E5520401426F02
:101DE0000001030EB26F9BD163C402F002C003F086
:101DF000026A0401625100010210006E03C001F08A
:101E0000010E00C0DBFF020E01C0DBFF010EDBCFC5
:101E1000E6FF020EDBCFE6FF61C4E6FF31EC12F015
:101E2000E552E552E55261C4E6FFE4EC11F0E552FB
:101E3000DE52F3CFDEFFF4CFDDFFDD52FF0EE76EA3
:101E4000010EDBCF00F0020EDBCF01F0E7500016F1
:101E5000016A00C042F4010EDBCF00F0020EDBCFBE
:101E600001F0000E0016FF0E011601C000F0016A1D
:101E700000C043F40001040EB26F51D18990030EEB
:101E8000DB6A040EDB6A030EDBCF00F0040EDBCF4F
:101E900001F0000E005C100E015806E2030EDB2A72
:101EA000040E01E3DB2AEFD789800001020EB26F36
:101EB00036D1C6C442F4C5C443F40001040EB26F67
:101EC0002ED1C7C442F40001030EB26F28D1C7C49B
:101ED00042F4C8C443F40001040EB26F20D10401DF
:101EE000010E426F04012E0E436F04010F0E446F6A
:101EF0000001050EB26F13D1040EE66E620EE66E9F
:101F0000040EE66EE66ADEEC12F0E552E552E552AA
:101F1000E552040EE66E420EE66E040EE66EE66ACA
:101F2000B7EC12F0E552E552E552E5520001060E1B
:101F3000B26FF5D0010EE66E600EE66E040EE66E30
:101F4000040EE66EDEEC12F0E552E552E552E55283
:101F5000FF000001010EB36F62C4B4F004016151CF
:101F600005E00401C2690001B36B46D00401BA0E5A
:101F7000A06F0401BA0EB06F0401EE0EA16F040150
:101F8000DD0EB16F0401A26B0401B26B0401A36BFF
:101F90000401B36B0401B46B0401A56B0401B56BC0
:101FA0000401A66B0401B66B0401A76B0401B76BB7
:101FB000040188690401896904018A6904018B6943
:101FC00004018C6904018D6904018E6904018F6923
:101FD000040198690401996904019A6904019B69E3
:101FE00004019C6904019D6904019E6904019F69C3
:101FF0000401C26B0401C76B92D09D90030EDB6A93
:10200000040EDB6A030EDBCF00F0040EDBCF01F021
:10201000026AD8900250000A06E6FF0E005CFF0E2E
:102020000158000E025806E2030EDB2A040E01E3FB
:10203000DB2AE8D70401200E416FD950050FE96E65
:10204000DACFEAFF420EEE6E040EED6E050EDBCF28
:1020500000F0060EDBCF01F0600E005C040E0158AC
:102060001EE2689C68ACFED7050EDBCFE9FF060ECA
:10207000DBCFEAFFB2CFEFFF050EDB2A060E01E34E
:10208000DB2A050EDBCFE9FF060EDBCFEAFFB3CF7D
:10209000EFFF050EDB2A060E01E3DB2AD7D79D8072
:1020A0009E9089EC15F0030EDB6A040EDB6A030ECA
:1020B000DBCF00F0040EDBCF01F0026AD8900250B3
:1020C000000A06E6FF0E005CFF0E0158000E0258E3
:1020D00006E2030EDB2A040E01E3DB2AE8D78A8638
:1020E0008990030EDB6A040EDB6A030EDBCF00F07F
:1020F000040EDBCF01F0000E005C100E015806E26A
:10210000030EDB2A040E01E3DB2AEFD789800001EE
:10211000200EB26F04D0FF0002D0000000D00001FA
:10212000B25124E00001AD51AE1102E1000E08D021
:10213000ADC0E9FFAEC0EAFFEF50800B01E0010E39
:10214000000914E1B2C0E6FF400EE66E040EE66E32
:10215000010EE66E010EE66EBCEC0CF0006E050E94
:10216000E15E0050F3CFADF0F4CFAEF0200EE66E9E
:10217000600EE66E040EE66EE66A010EE66EBCECDC
:102180000CF0006E050EE15E0050F3CFABF0F4CF23
:10219000ACF0090EE15C02E2E16AE552E16EE55263
:1021A000E7CFD9FF12000001AF51B01104E1100ECA
:1021B000AF6F270EB06FAF07000EB05B6DA204D0FB
:1021C000AF51B01121E116D0000160510AE0600565
:1021D00003E0020E605D02E1898A1200040E605D78
:1021E00002E1899A1200100E605D06E10001AF5114
:1021F000B0110AE1897A1200200E605D05E100014C
:10220000AF51B01101E1897A12008250400B01E018
:10221000010E0001B15D07E08250400B01E0010EAC
:08222000B16F82AC010C000C4F
:08222800D9CFE6FFE1CFD9FF99
:10223000FE0EDB50070A32E00B0A30E0010A2EE006
:102240001D0A2CE0010A2AE0080A28E0030A26E019
:10225000010A24E0070A22E0010A20E0030A1EE046
:10226000010A1CE02A0A1AE0030A18E0010A16E033
:102270000F0A14E0010A12E0030A10E0010A0EE05E
:10228000070A0CE0010A0AE0030A08E0640A06E013
:10229000010A04E0FE0EDB506C0802E2000E01D0E1
:1022A000010EE552E7CFD9FF1200D9CFE6FFE1CF0B
:1022B000D9FF020EE1260A0EDE6EDD6ADFCF00F0E6
:1022C000DF06010EDBCF01F001E2DB06005001105A
:1022D000F5E1020EE15C02E2E16AE552E16EE552EF
:1022E000E7CFD9FF1200D9CFE6FFE1CFD9FF8A9619
:1022F000FE0EDBCFE6FF71EC15F0E5528A86E55263
:10230000E7CFD9FF1200D9CFE6FFE1CFD9FFE652E0
:102310008A96B5EC15F0DF6E8A86DF50E552E552FD
:10232000E7CFD9FF1200D9CFE6FFE1CFD9FFFE0EEC
:10233000DBCFE6FFD8DFE552B8DFFD0EDBCFE6FFEF
:10234000D2DFE552E552E7CFD9FF1200D9CFE6FF41
:10235000E1CFD9FFFE0EDB508009E66EC4DFE55207
:10236000A4DFD1DFE552E7CFD9FF1200D9CFE6FFD6
:10237000E1CFD9FF020EE126DE6ADD6ADECF00F092
:10238000DDCF01F0D890015004E6E80E005C030EAA
:1023900001580DE21F0EE66ED9DFE552000902E199
:1023A000F36A07D0DF2A010EE9E3DB2AE7D7010E43
:1023B000F36EF46A020EE15C02E2E16AE552E16E5C
:1023C000E552E7CFD9FF1200D9CFE6FFE1CFD9FF21
:1023D000020EE126DE6ADD6AC9DFF3CF00F0F4CF3A
:1023E00001F0F350F41004E0AD0EF36EDE0E13D0E6
:1023F000FE0EDBCFE6FF1E0EE66E95DFE552E552E0
:10240000B5DFF3CF00F0F4CF01F0F350F41005E0A6
:10241000EF0EF36EBE0EF46E1AD01D0EE66E96DF52
:10242000E552DE6EDD6AD9CFE9FFDACFEAFFEE5082
:10243000ED6EEF6A1C0EE66E89DFE552DF12DECF2D
:1024400000F0DDCF01F000C0F3FF01C0F4FF020E89
:10245000E15C02E2E16AE552E16EE552E7CFD9FFC5
:102460001200D9CFE6FFE1CFD9FF80DFF350F4109F
:102470002BE1FF0EE76EFC0EDBCF00F0E7500016FD
:10248000016A0050E66E1C0EE66E4DDFE552E55225
:10249000FC0EDBCF00F0FD0EDBCF01F0000E0016CE
:1024A000FF0E011601C000F0016A0050E66E1D0E1D
:1024B000E66E39DFE552E552FE0EDBCFE6FF1E0E7B
:1024C000E66E31DFE552E552E552E7CFD9FF120063
:1024D000F29E040EA96EA69EA69CA680A85003E0BC
:1024E000EE0EA85C02E19AEF15F0A86AA684550EDC
:1024F000A76EAA0EA76EA682A6B2FED7A6948CEFF0
:1025000003F01200D9CFE6FFE1CFD9FFFE0EDB507A
:10251000A96EA69EA69CA680A850E552E7CFD9FF3B
:102520001200D9CFE6FFE1CFD9FFE652F250800B7F
:1025300001E0010EDF6EFE0EDB50A96EFD0EDB50DA
:10254000A86EA69EA69CA684F29E550EA76EAA0E05
:10255000A76EA682A6B2FED7DF50E8B0F28EE8A042
:10256000F29EA694E552E552E7CFD9FF1200D9CFEB
:10257000E6FFE1CFD9FFE652DF6AFB0EDB50DF5CFE
:1025800018E2FE0EDB50DF24E66EBCDFE552E66E9D
:10259000DF50E76EFC0EDBCFE9FFFD0EDBCFEAFF7D
:1025A000E750E926000EEA22E552E750EF6EDF2AF7
:1025B000E4D7E552E552E7CFD9FF1200D9CFE6FFC5
:1025C000E1CFD9FFE652DF6AFB0EDB50DF5C17E29A
:1025D000DF50E76EFC0EDBCFE9FFFD0EDBCFEAFF3D
:1025E000E750E926000EEA22EF50E66EFE0EDB50C1
:1025F000DF24E66E96DFE552E552DF2AE5D7E552A5
:10260000E552E7CFD9FF1200D9CFE6FFE1CFD9FFDE
:10261000140EE126D950020FE96EDACFEAFF300E30
:10262000EE6E310EEE6E320EEE6E330EEE6E340E38
:10263000EE6E350EEE6E360EEE6E370EEE6E380E18
:10264000EE6E390EEE6E300EEE6E410EEE6E420EF6
:10265000EE6E430EEE6E440EEE6E450EEE6E460EC0
:10266000EE6EEE6A010EDB6AFB0EDB50F36E010EBE
:10267000DBCFF4FFF350F45C5AE2010EDBCFE6FF50
:10268000FE0EDB50E552E724E66E3CDFE552DF6EDE
:10269000D950020F046EF00EDF14E8380F0B0F0153
:1026A0000424E96E000EDA20EA6EEFCF02F0036A2E
:1026B00002BE0368FC0EDBCF00F0FD0EDBCF01F0A5
:1026C000010EDB50E824020D0050F324E96E0150A6
:1026D000F420EA6E02C0EEFF03C0EDFFD950020FF6
:1026E000046EDACF05F00F0EDF140424E96E000E3D
:1026F000DA20EA6EEFCF02F0036A02BE0368FC0E36
:10270000DBCF00F0FD0EDBCF01F0010EDB50E82443
:10271000010F020D0050F324E96E0150F420EA6E1F
:1027200002C0EEFF03C0EDFF010EDB2A9DD7140EA1
:10273000E15C02E2E16AE552E16EE552E7CFD9FFE2
:02274000120085
:0E274200DACFE4FFE2CFDAFFE65210EF04F048
:10275000E552E5CFDAFF1100D8CFE4FFE0CFE4FF88
:10276000E46EDACFE4FFE652E552E5CFDAFFE5505A
:10277000E5CFE0FFE5CFD8FF100005D8E9EC05F084
:10278000C4EC0DF0FBD70F0EC11293EC05F046EF31
:102790000DF0D9CFE6FFE1CFD9FF020EE126A40E5E
:1027A000DE6E040EDD6EDECFE9FFDDCFEAFF550EF3
:1027B000EF6E020EE15C02E2E16AE552E16EE55283
:1027C000E7CFD9FF1200D9CFE6FFE1CFD9FF020E44
:1027D000E126A40EDE6E040EDD6EDECFE9FFDDCF56
:1027E000EAFFEF50AA0801E2FF00DECFE9FFDDCFEC
:1027F000EAFFAA0EEF6E020EE15C02E2E16AE55228
:10280000E16EE552E7CFD9FF12001200D9CFE6FF03
:10281000E1CFD9FF020EE126A40EDE6E040EDD6EBE
:10282000DECFE9FFDDCFEAFFEE0EEF6E020EE15CD8
:1028300002E2E16AE552E16EE552E7CFD9FF12000C
:1028400012001200D9CFE6FFE1CFD9FF020EE12638
:10285000A40EDE6E040EDD6EDECFE9FFDDCFEAFFF3
:10286000EF2ADECFE9FFDDCFEAFFEF50AB0801E250
:10287000FF001E0EE66E010EE66E13EC0CF0E55244
:10288000E552200EE66E600EE66E040EE66EE66A17
:10289000010EE66EBCEC0CF0006E050EE15E005021
:1028A000F3CFABF0F4CFACF00E0EE66E020EE66E98
:1028B00013EC0CF0E552E552100EE66E800EE66E5B
:1028C000040EE66EE66A020EE66EBCEC0CF0006EDC
:1028D000050EE15E0050F3CFB5F0F4CFB6F0020E76
:1028E000E15C02E2E16AE552E16EE552E7CFD9FF31
:1028F00012006D840001080EB96F070EBA6FB90798
:0E290000000EBA5BB951BA11FAE16D941200E3
:02290E00000EB9
:10291000F66E0B0EF76E000EF86E00010900F55012
:10292000A46F0900F550A56F03E1A46701D03DD065
:102930000900F5509F6F0900F550A06F0900F55090
:10294000A16F09000900F550E96E0900F550EA6E23
:10295000090009000900F550A26F0900F550A36FA6
:1029600009000900F6CFA6F0F7CFA7F0F8CFA8F03E
:102970009FC0F6FFA0C0F7FFA1C0F8FF0001A2535F
:1029800002E1A35307E00900F550EE6EA207F8E25A
:10299000A307F9D7A6C0F6FFA7C0F7FFA8C0F8FFA6
:0C29A0000001A407000EA55BBFD71200C9
:0429AC001201000212
:1029B00000000008D804F1FC010001020301090233
:1029C0002E0001010080FA0904000004000000004C
:1029D000070501022000010705810220000107050B
:1029E000020D1000010705820D1000010403090407
:1029F0002A0341006E00670065006C006F007300E1
:102A000020005600610072007600690074007300B7
:102A100069006F0074006900730026034F007000A6
:102A200065006E0020005500530042002000460063
:102A300058005300200062006F00610072006400C3
:0A2A4000BE29EC29F0291A2A8D00A6
:062A4A00D9CFE6FFDACF50
:102A5000E6FFE1CFD9FFE2CFDAFF3F0EC716C66A25
:102A6000FD0EDB50C612FB0EDB50C712FC0EDB5016
:102A7000030A09E0010A04E0020A06E1C78C04D057
:102A8000C78CC68801D0C688FD0EDB50050A03E05E
:102A9000010A03E1928A938201D093929380949EDB
:0E2AA000C68AE552E5CFDAFFE7CFD9FF120074
:022AAE00FE0E1A
:102AB000E3CFE9FFFF0EE3CFEAFFE9CFF3FFEACF71
:102AC000F4FFFB0EE35003E1FC0EE35009E0FB0EC4
:102AD000E30602E2FC0EE306FD0EE350EE6EF1D7D4
:022AE0001200E2
:0E2AE200D9CFE6FFDACFE6FFE1CFD9FFE2CF92
:102AF000DAFFFD0EDB50C96EC6AE02D0FF0E03D06A
:102B0000C7A0FED7000EE552E5CFDAFFE7CFD9FF29
:022B10001200B1
:0E2B12009D900401070EC56F030EC66F080EDE
:102B2000C06FC16BC76BC26BCA6B89988992698C85
:042B30009D80120072
:0C2B340013EE00F023EE00F0F86A079C9E
:102B400087EC14F0BAEC15F0BDEC13F0FBD71200D3
:0E2B500000EE00F00F0EEE6AEA62FDD71200F2
:022B5E002452FF
:092B600065766973696F6E24004B
:062B6A00C96AC7A0FED7F6
:042B7000C950120036
:022B740012004D
:082B76005E2B000000000000CE
:022B7E00120340
:102B80006400650061006400620065006500660025
:042B90000000000041
:020000040030CA
:0100000024DB
:010001000EF0
:010002002BD2
:010003001EDE
:010005008179
:010006008574
:010008000FE8
:01000900C036
:01000A000FE6
:01000B00E014
:01000C000FE4
:01000D0040B2
:00000001FF
